:1000000009C016C015C014C013C012C012C010C061
:100010000FC00EC011241FBECFE9CDBF20E0A0E667
:10002000B0E001C01D92A736B207E1F7CCD1D2C132
:10003000E7CF1F920F920FB60F9211242F938F9339
:100040009F93809163009091640001969093640067
:1000500080936300809163009091640088359240A2
:1000600048F01092640010926300809166008260F4
:10007000809366008091600090916100019690935A
:1000800061008093600080916000909161008039F0
:10009000914048F0109261001092600080916600DB
:1000A0008460809366009F918F912F910F900FBE77
:1000B0000F901F9018958DE187BB82E288BB479A0D
:1000C00083B7826083BF89B7846089BF8FB5826040
:1000D0008FBD86E986BF18BE089586E090E048E0AF
:1000E00034E028B3242728BB28B3232728BBEFE517
:1000F000FAEE3197F1F700C000000197009789F7F9
:100100000895B1991BC08BE49DE10197F1F700C000
:100110000000B19913C09FEF2DEE82E09150204076
:100120008040E1F700C0000080916500806480930A
:100130006500D3DFB19902C00000FCCF0895C49AD6
:100140008FE599E00197F1F700C00000C09A8FE6B3
:1001500097E10197F1F700C00000C39AC498089591
:10016000C49A8FE599E00197F1F700C00000C098AC
:100170008FE697E10197F1F700C00000C398C4989B
:100180000895F894109264001092630080916600C4
:100190008D7F8093660078940895F89410926100A2
:1001A00010926000809166008B7F80936600789447
:1001B00008958091650084FF06C081FD04C08260BF
:1001C00080936500BCDF8091650084FD06C081FFDF
:1001D00004C08D7F80936500C3DF8091650085FF3B
:1001E00002C0C29A0895C2980895B19B03C0B19904
:1001F0002DC033C08091650082FDF9CF90916600DB
:1002000091FFF5CF982F946086FF03C0909365000F
:1002100004C080E18927809365009091650096FF76
:1002200011C097FD05C080E18927877F8093650015
:100230009091650097FF06C094FF04C080E2892773
:1002400080936500B199D3CF0000FCCF8091650009
:1002500082FF03C08B7F80936500B19B07C0F89439
:10026000809166008D7F8093660078940895F8945D
:100270001092610010926000809166008B7F8093E5
:10028000660078940895B19940C08BEB94E3019790
:10029000F1F700C00000B19938C08091650080FD81
:1002A00034C083FF04C081608093650008C08F77ED
:1002B000816090E1892780936500D9DF62DF8091BA
:1002C000650083FF22C08068809365005ADF8091BB
:1002D0006200823011F410926200809162008F5FA0
:1002E00080936200813089F458DF9091650096FD1B
:1002F00004C080E18927809365009091650096FF96
:1003000004C080E28927809365008091650084FFA6
:1003100007C09091660092FF03C0886080936500DB
:10032000B19B07C08091650080FF03C08E7F8093E2
:1003300065008091650083FF36C080916200813046
:10034000A1F48091660082FF10C0F894809166004D
:100350008B7F809366007894109262008091650094
:1003600086FD03C0877F80936500809162008230A4
:10037000D1F48091660082FD16C08091650090E303
:10038000892780936500F894809166008B7F809325
:1003900066007894109262008091650086FF03C029
:1003A000877F809365008091650083FF0BC08091FB
:1003B0006200811107C0F894809166008B7F809362
:1003C00066007894089577DE9CDE78945CDFF1DE39
:0803D0000CDFFCCFF894FFCF15
:00000001FF
