S0260000536F66745F53696C656E745F5242535F53797374656D5F5265765F335F312E73726563BC
S113000009C016C015C014C013C012C012C010C05D
S11300100FC00EC011241FBECFE9CDBF20E0A0E663
S1130020B0E001C01D92A736B207E1F7E0D1F1C1FB
S1130030E7CF1F920F920FB60F9211242F938F9335
S11300409F93809163009091640001969093640063
S1130050809363008091630090916400883592409E
S113006048F01092640010926300809166008260F0
S11300708093660080916000909161000196909356
S113008061008093600080916000909161008039EC
S1130090914048F0109261001092600080916600D7
S11300A08460809366009F918F912F910F900FBE73
S11300B00F901F9018958DE187BB82E288BB479A09
S11300C083B7826083BF89B7846089BF8FB582603C
S11300D08FBD86E986BF18BE089586E090E048E0AB
S11300E034E028B3242728BB28B3232728BBEFE216
S11300F0F5E73197F1F700C000000197009789F701
S11301000895B1991CC08BEB94E30197F1F700C0FB
S11301100000B1990FC09FEB24ED81E09150204085
S11301208040E1F700C00000809165008064809306
S11301306500D3DFB19903C00000B19BFDCF0895E2
S1130140C49A8FE599E00197F1F700C00000C09AC6
S11301508FE697E10197F1F700C00000C39AC498B5
S11301600895C49A8FE599E00197F1F700C0000063
S1130170C0988FE697E10197F1F700C00000C3989B
S1130180C4980895F89410926400109263008091CA
S113019066008D7F8093660078940895F894109299
S11301A0610010926000809166008B7F80936600EE
S11301B0789408958091650081FF0AC082FD0EC085
S11301C0846080936500BCDF8091650081FD06C07A
S11301D082FF04C08B7F80936500C3DF809165003C
S11301E084FF02C0C29A0895C2980895B19920C0AC
S11301F08091650083FD1CC09091660091FF18C03A
S1130200982F986086FF03C09093650004C082E035
S11302109827909365008091650086FF04C090E163
S1130220892780936500B19903C00000B19BFDCF7D
S1130230B19B0DC08091650083FF09C0877F8093C7
S113024065008BE49DE10197F1F700C00000B19BCC
S113025007C0F894809166008D7F8093660078943F
S11302600895B1992CC08BE49DE10197F1F700C08A
S11302700000B19924C08091650080FD20C0816098
S1130280809365007FDF80916200823021F481E0F9
S11302908093620005C08F5F80936200813079F49F
S11302A08091650086FD06C092E0892780936500F1
S11302B086FF4EC090E189278093650049C0B19BB9
S11302C007C08091650080FF03C08E7F8093650026
S11302D080916200813091F48091660082FF3AC07F
S11302E0F894809166008B7F809366001092620080
S11302F07894809165008F7D809365008091620081
S11303008230D1F48091660082FD24C09091650012
S113031082E1892780936500F894809166008B7F41
S1130320809366001092620078948091650086FF45
S113033003C08F7D809365008091620081110AC0A3
S1130340F894809166008B7F80936600789408957A
S113035025DFB5CF0895F8941092610010926000E3
S1130360809166008B7F8093660078940895B1999C
S113037029C08BEB94E30197F1F700C00000B19919
S113038021C08091650080FD1DC0982F916086FF7B
S113039003C09093650004C082E0982790936500A1
S11303A08091650086FF0CC085FF06C090E1892717
S11303B08093650085FD04C092E0892780936500E1
S11303C0CADFE0DE8091650081FF07C0909166007E
S11303D092FF03C0806280936500B19B07C0809147
S11303E0650080FF03C08E7F80936500089563DEFF
S11303F088DE7894BCDFDEDEF9DE8091650085FF5F
S1130400F9CF2FDFD7DEF2DE8091650085FDF9CFCD
S1090410F1CFF894FFCFC8
S9030000FC
