S021000053535242535F53797374656D5F5265765F335F7570646174652E7372656392
S113000009C016C015C014C013C012C024C010C04B
S11300100FC00EC011241FBECFE9CDBF20E0A0E663
S1130020B0E001C01D92A636B207E1F7D0D0D5C02A
S1130030E7CF8DE187BB82E288BB479A83B78260B2
S113004083BF89B7846089BF8FB582608FBD86E91D
S113005086BF18BE08951F920F920FB60F921124F7
S11300602F938F939F9380916000909161000196EC
S11300709093610080936000809160009091610092
S11300808835924048F0109261001092600080918F
S113009065008160809365009F918F912F910F90EF
S11300A00FBE0F901F901895C49A87EB9BE00197A1
S11300B0F1F700C00000C09AC39A8FED9EE2019749
S11300C0F1F700C00000C4980895C49A87EB9BE040
S11300D00197F1F700C00000C098C3988FED9EE22D
S11300E00197F1F700C00000C4980895C29A0895DA
S11300F0C29808958091640084FF0AC081FD12C0F3
S1130100826080936400D0DF8091640084FD0AC023
S113011081FF0AC08D7F80936400D7DF80916400E3
S113012084FF02C0E5DF0895E1DF0895B19912C0AC
S11301308091640083FD0EC09091650090FF0AC019
S1130140886090E1892780936400B19903C000001E
S1130150B19BFDCFB19B07C08091640083FF03C0B6
S1130160877F80936400B19B07C0F89480916500F9
S11301708E7F8093650078940895F89410926100BE
S113018010926000809165008E7F80936500789462
S11301900895B19912C08BEB94E30197F1F700C075
S11301A00000B1990AC08091640080FD06C081609E
S11301B090E1892780936400E0DFB19B07C08091C0
S11301C0640080FF03C08E7F80936400089531DF54
S11101D07894DFDF8FDFAADFFCCFF894FFCF37
S9030000FC
