S0280000536F66745F53696C656E745F5242535F53797374656D5F5265765F345F302E632E7372656329
S113000009C016C015C014C013C012C024C010C04B
S11300100FC00EC011241FBECFE9CDBF20E0A0E663
S1130020B0E001C01D92A636B207E1F73AD141C152
S1130030E7CF8CE187BB83E288BB479A83B78260B2
S113004083BF89B7846089BF8FB582608FBD86E91D
S113005086BF18BE08951F920F920FB60F921124F7
S11300602F938F939F9380916000909161000196EC
S11300709093610080936000809160009091610092
S11300808835924048F0109261001092600080918F
S113009065008160809365008091620090916300A7
S11300A00196909363008093620080916200909126
S11300B063008835924048F0109263001092620009
S11300C0809165008260809365009F918F912F914C
S11300D00F900FBE0F901F901895C49A8FE599E06A
S11300E00197F1F700C00000C39A8FE697E10197EA
S11300F0F1F700C00000C4980895C49A8FE599E010
S11301000197F1F700C00000C3988FE697E10197CB
S1130110F1F700C00000C4980895C29A0895C298E7
S113012008958091640084FF0AC081FD0EC082603E
S113013080936400D2DF8091640084FD06C081FF57
S113014004C08D7F80936400D8DF8091640085FFB4
S113015002C0E3DF0895E3DF0895F894109261008C
S113016010926000809165008E7F80936500789482
S11301700895B19912C08BEB94E30197F1F700C095
S11301800000B1990AC08091640080FD06C08160BE
S113019090E1892780936400E0DFB19B07C08091E0
S11301A0640080FF03C08E7F809364000895B0993B
S11301B013C08091640083FD0FC09091650091FF8E
S11301C00BC0886090E2892780936400B09904C0D2
S11301D0D0DF0000B09BFCCFB09B07C080916400CF
S11301E083FF03C0877F80936400B09B07C0F894AB
S11301F0809165008D7F8093650078940895F894CC
S11302001092630010926200809165008D7F80934C
S1130210650078940895B09912C08BEB94E301972C
S1130220F1F700C00000B0990AC08091640082FD1B
S113023006C0846090E2892780936400E0DFB09B6D
S113024007C08091640082FF03C08B7F80936400A9
S11302500895B19913C08091640083FD0FC09091FB
S1130260650090FF0BC0886090E18927809364004B
S1130270B19904C0D0DF0000B19BFCCFB19B07C093
S11302808091640083FF03C0877F80936400B19BE7
S113029007C0F894809165008E7F80936500789400
S11302A00895C7DE789465DFB6DF3BDFD2DF7FDFFA
S10902B0FACFF894FFCF21
S9030000FC
